:1000000012C024C023C022C021C020C01FC01EC0F7
:100010001DC01CC01BC01AC019C018C017C016C014
:1000200015C014C013C011241FBECFE5D4E0DEBF3D
:10003000CDBF10E0A0E6B0E0E4ECF0E002C0059037
:100040000D92A437B107D9F702D03AC0D9CF8FEFBC
:1000500081BB12BA17BA80EC82BB20E030E0F90114
:10006000EE0FFF1FE05AFF4F808182BB86B38034C2
:1000700091F42930310578F48BE792E90197F1F793
:1000800000C000002F5F3F4F8BE792E90197F1F727
:1000900000C00000E4CF86B3803809F72115310590
:1000A000F1F28BE792E90197F1F700C000002150CF
:1000B00031098BE792E90197F1F700C00000CFCF3B
:0400C000F894FFCFE2
:1000C4003F0006005B004F0066006D007D000700E6
:0400D4007F006F003A
:00000001FF
